{
  "contractName": "ProductFactory",
  "abi": [
    {
      "anonymous": false,
      "inputs": [
        {
          "components": [
            {
              "internalType": "string",
              "name": "code",
              "type": "string"
            },
            {
              "internalType": "string",
              "name": "name",
              "type": "string"
            },
            {
              "internalType": "string",
              "name": "agency",
              "type": "string"
            },
            {
              "internalType": "string",
              "name": "price",
              "type": "string"
            },
            {
              "internalType": "string",
              "name": "dueDate",
              "type": "string"
            },
            {
              "internalType": "string",
              "name": "category",
              "type": "string"
            },
            {
              "internalType": "string",
              "name": "description",
              "type": "string"
            },
            {
              "internalType": "string",
              "name": "employee",
              "type": "string"
            }
          ],
          "indexed": false,
          "internalType": "struct ProductFactory.Product",
          "name": "product",
          "type": "tuple"
        },
        {
          "indexed": true,
          "internalType": "uint256",
          "name": "id",
          "type": "uint256"
        }
      ],
      "name": "SubmitProduct",
      "type": "event"
    },
    {
      "inputs": [
        {
          "internalType": "uint256",
          "name": "",
          "type": "uint256"
        }
      ],
      "name": "products",
      "outputs": [
        {
          "internalType": "string",
          "name": "code",
          "type": "string"
        },
        {
          "internalType": "string",
          "name": "name",
          "type": "string"
        },
        {
          "internalType": "string",
          "name": "agency",
          "type": "string"
        },
        {
          "internalType": "string",
          "name": "price",
          "type": "string"
        },
        {
          "internalType": "string",
          "name": "dueDate",
          "type": "string"
        },
        {
          "internalType": "string",
          "name": "category",
          "type": "string"
        },
        {
          "internalType": "string",
          "name": "description",
          "type": "string"
        },
        {
          "internalType": "string",
          "name": "employee",
          "type": "string"
        }
      ],
      "stateMutability": "view",
      "type": "function",
      "constant": true
    },
    {
      "inputs": [
        {
          "components": [
            {
              "internalType": "string",
              "name": "code",
              "type": "string"
            },
            {
              "internalType": "string",
              "name": "name",
              "type": "string"
            },
            {
              "internalType": "string",
              "name": "agency",
              "type": "string"
            },
            {
              "internalType": "string",
              "name": "price",
              "type": "string"
            },
            {
              "internalType": "string",
              "name": "dueDate",
              "type": "string"
            },
            {
              "internalType": "string",
              "name": "category",
              "type": "string"
            },
            {
              "internalType": "string",
              "name": "description",
              "type": "string"
            },
            {
              "internalType": "string",
              "name": "employee",
              "type": "string"
            }
          ],
          "internalType": "struct ProductFactory.Product",
          "name": "product",
          "type": "tuple"
        }
      ],
      "name": "createProduct",
      "outputs": [],
      "stateMutability": "nonpayable",
      "type": "function"
    },
    {
      "inputs": [],
      "name": "getAllProduct",
      "outputs": [
        {
          "components": [
            {
              "internalType": "string",
              "name": "code",
              "type": "string"
            },
            {
              "internalType": "string",
              "name": "name",
              "type": "string"
            },
            {
              "internalType": "string",
              "name": "agency",
              "type": "string"
            },
            {
              "internalType": "string",
              "name": "price",
              "type": "string"
            },
            {
              "internalType": "string",
              "name": "dueDate",
              "type": "string"
            },
            {
              "internalType": "string",
              "name": "category",
              "type": "string"
            },
            {
              "internalType": "string",
              "name": "description",
              "type": "string"
            },
            {
              "internalType": "string",
              "name": "employee",
              "type": "string"
            }
          ],
          "internalType": "struct ProductFactory.Product[]",
          "name": "",
          "type": "tuple[]"
        }
      ],
      "stateMutability": "view",
      "type": "function",
      "constant": true
    },
    {
      "inputs": [
        {
          "components": [
            {
              "internalType": "string",
              "name": "code",
              "type": "string"
            },
            {
              "internalType": "string",
              "name": "name",
              "type": "string"
            },
            {
              "internalType": "string",
              "name": "agency",
              "type": "string"
            },
            {
              "internalType": "string",
              "name": "price",
              "type": "string"
            },
            {
              "internalType": "string",
              "name": "dueDate",
              "type": "string"
            },
            {
              "internalType": "string",
              "name": "category",
              "type": "string"
            },
            {
              "internalType": "string",
              "name": "description",
              "type": "string"
            },
            {
              "internalType": "string",
              "name": "employee",
              "type": "string"
            }
          ],
          "internalType": "struct ProductFactory.Product",
          "name": "product",
          "type": "tuple"
        },
        {
          "internalType": "uint256",
          "name": "index",
          "type": "uint256"
        }
      ],
      "name": "updateProduct",
      "outputs": [],
      "stateMutability": "nonpayable",
      "type": "function"
    }
  ],
  "bytecode": "0x608060405234801561001057600080fd5b506119ac806100206000396000f3fe608060405234801561001057600080fd5b506004361061004c5760003560e01c80637acc0b2014610051578063808407f914610088578063bf10d838146100a4578063d055a75f146100c0575b600080fd5b61006b60048036038101906100669190610dab565b6100de565b60405161007f989796959493929190610e68565b60405180910390f35b6100a2600480360381019061009d9190611207565b610576565b005b6100be60048036038101906100b99190611250565b610699565b005b6100c86107b7565b6040516100d59190611499565b60405180910390f35b600081815481106100ee57600080fd5b9060005260206000209060080201600091509050806000018054610111906114ea565b80601f016020809104026020016040519081016040528092919081815260200182805461013d906114ea565b801561018a5780601f1061015f5761010080835404028352916020019161018a565b820191906000526020600020905b81548152906001019060200180831161016d57829003601f168201915b50505050509080600101805461019f906114ea565b80601f01602080910402602001604051908101604052809291908181526020018280546101cb906114ea565b80156102185780601f106101ed57610100808354040283529160200191610218565b820191906000526020600020905b8154815290600101906020018083116101fb57829003601f168201915b50505050509080600201805461022d906114ea565b80601f0160208091040260200160405190810160405280929190818152602001828054610259906114ea565b80156102a65780601f1061027b576101008083540402835291602001916102a6565b820191906000526020600020905b81548152906001019060200180831161028957829003601f168201915b5050505050908060030180546102bb906114ea565b80601f01602080910402602001604051908101604052809291908181526020018280546102e7906114ea565b80156103345780601f1061030957610100808354040283529160200191610334565b820191906000526020600020905b81548152906001019060200180831161031757829003601f168201915b505050505090806004018054610349906114ea565b80601f0160208091040260200160405190810160405280929190818152602001828054610375906114ea565b80156103c25780601f10610397576101008083540402835291602001916103c2565b820191906000526020600020905b8154815290600101906020018083116103a557829003601f168201915b5050505050908060050180546103d7906114ea565b80601f0160208091040260200160405190810160405280929190818152602001828054610403906114ea565b80156104505780601f1061042557610100808354040283529160200191610450565b820191906000526020600020905b81548152906001019060200180831161043357829003601f168201915b505050505090806006018054610465906114ea565b80601f0160208091040260200160405190810160405280929190818152602001828054610491906114ea565b80156104de5780601f106104b3576101008083540402835291602001916104de565b820191906000526020600020905b8154815290600101906020018083116104c157829003601f168201915b5050505050908060070180546104f3906114ea565b80601f016020809104026020016040519081016040528092919081815260200182805461051f906114ea565b801561056c5780601f106105415761010080835404028352916020019161056c565b820191906000526020600020905b81548152906001019060200180831161054f57829003601f168201915b5050505050905088565b600081908060018154018082558091505060019003906000526020600020906008020160009091909190915060008201518160000190816105b791906116c7565b5060208201518160010190816105cd91906116c7565b5060408201518160020190816105e391906116c7565b5060608201518160030190816105f991906116c7565b50608082015181600401908161060f91906116c7565b5060a082015181600501908161062591906116c7565b5060c082015181600601908161063b91906116c7565b5060e082015181600701908161065191906116c7565b505050600080805490509050807fde23abd2652a6e2b395904143ead2d1e91831930cddafc037a146fca02ef52c88360405161068d919061187a565b60405180910390a25050565b81600082815481106106ae576106ad61189c565b5b906000526020600020906008020160008201518160000190816106d191906116c7565b5060208201518160010190816106e791906116c7565b5060408201518160020190816106fd91906116c7565b50606082015181600301908161071391906116c7565b50608082015181600401908161072991906116c7565b5060a082015181600501908161073f91906116c7565b5060c082015181600601908161075591906116c7565b5060e082015181600701908161076b91906116c7565b5090505060018161077c91906118fa565b7fde23abd2652a6e2b395904143ead2d1e91831930cddafc037a146fca02ef52c8836040516107ab919061187a565b60405180910390a25050565b60606000808054905067ffffffffffffffff8111156107d9576107d8610f23565b5b60405190808252806020026020018201604052801561081257816020015b6107ff610d1c565b8152602001906001900390816107f75790505b50905060005b600080549050811015610d1457600081815481106108395761083861189c565b5b906000526020600020906008020160405180610100016040529081600082018054610863906114ea565b80601f016020809104026020016040519081016040528092919081815260200182805461088f906114ea565b80156108dc5780601f106108b1576101008083540402835291602001916108dc565b820191906000526020600020905b8154815290600101906020018083116108bf57829003601f168201915b505050505081526020016001820180546108f5906114ea565b80601f0160208091040260200160405190810160405280929190818152602001828054610921906114ea565b801561096e5780601f106109435761010080835404028352916020019161096e565b820191906000526020600020905b81548152906001019060200180831161095157829003601f168201915b50505050508152602001600282018054610987906114ea565b80601f01602080910402602001604051908101604052809291908181526020018280546109b3906114ea565b8015610a005780601f106109d557610100808354040283529160200191610a00565b820191906000526020600020905b8154815290600101906020018083116109e357829003601f168201915b50505050508152602001600382018054610a19906114ea565b80601f0160208091040260200160405190810160405280929190818152602001828054610a45906114ea565b8015610a925780601f10610a6757610100808354040283529160200191610a92565b820191906000526020600020905b815481529060010190602001808311610a7557829003601f168201915b50505050508152602001600482018054610aab906114ea565b80601f0160208091040260200160405190810160405280929190818152602001828054610ad7906114ea565b8015610b245780601f10610af957610100808354040283529160200191610b24565b820191906000526020600020905b815481529060010190602001808311610b0757829003601f168201915b50505050508152602001600582018054610b3d906114ea565b80601f0160208091040260200160405190810160405280929190818152602001828054610b69906114ea565b8015610bb65780601f10610b8b57610100808354040283529160200191610bb6565b820191906000526020600020905b815481529060010190602001808311610b9957829003601f168201915b50505050508152602001600682018054610bcf906114ea565b80601f0160208091040260200160405190810160405280929190818152602001828054610bfb906114ea565b8015610c485780601f10610c1d57610100808354040283529160200191610c48565b820191906000526020600020905b815481529060010190602001808311610c2b57829003601f168201915b50505050508152602001600782018054610c61906114ea565b80601f0160208091040260200160405190810160405280929190818152602001828054610c8d906114ea565b8015610cda5780601f10610caf57610100808354040283529160200191610cda565b820191906000526020600020905b815481529060010190602001808311610cbd57829003601f168201915b505050505081525050828281518110610cf657610cf561189c565b5b60200260200101819052508080610d0c9061192e565b915050610818565b508091505090565b60405180610100016040528060608152602001606081526020016060815260200160608152602001606081526020016060815260200160608152602001606081525090565b6000604051905090565b600080fd5b600080fd5b6000819050919050565b610d8881610d75565b8114610d9357600080fd5b50565b600081359050610da581610d7f565b92915050565b600060208284031215610dc157610dc0610d6b565b5b6000610dcf84828501610d96565b91505092915050565b600081519050919050565b600082825260208201905092915050565b60005b83811015610e12578082015181840152602081019050610df7565b60008484015250505050565b6000601f19601f8301169050919050565b6000610e3a82610dd8565b610e448185610de3565b9350610e54818560208601610df4565b610e5d81610e1e565b840191505092915050565b6000610100820190508181036000830152610e83818b610e2f565b90508181036020830152610e97818a610e2f565b90508181036040830152610eab8189610e2f565b90508181036060830152610ebf8188610e2f565b90508181036080830152610ed38187610e2f565b905081810360a0830152610ee78186610e2f565b905081810360c0830152610efb8185610e2f565b905081810360e0830152610f0f8184610e2f565b90509998505050505050505050565b600080fd5b7f4e487b7100000000000000000000000000000000000000000000000000000000600052604160045260246000fd5b610f5b82610e1e565b810181811067ffffffffffffffff82111715610f7a57610f79610f23565b5b80604052505050565b6000610f8d610d61565b9050610f998282610f52565b919050565b600080fd5b600080fd5b600080fd5b600067ffffffffffffffff821115610fc857610fc7610f23565b5b610fd182610e1e565b9050602081019050919050565b82818337600083830152505050565b6000611000610ffb84610fad565b610f83565b90508281526020810184848401111561101c5761101b610fa8565b5b611027848285610fde565b509392505050565b600082601f83011261104457611043610fa3565b5b8135611054848260208601610fed565b91505092915050565b6000610100828403121561107457611073610f1e565b5b61107f610100610f83565b9050600082013567ffffffffffffffff81111561109f5761109e610f9e565b5b6110ab8482850161102f565b600083015250602082013567ffffffffffffffff8111156110cf576110ce610f9e565b5b6110db8482850161102f565b602083015250604082013567ffffffffffffffff8111156110ff576110fe610f9e565b5b61110b8482850161102f565b604083015250606082013567ffffffffffffffff81111561112f5761112e610f9e565b5b61113b8482850161102f565b606083015250608082013567ffffffffffffffff81111561115f5761115e610f9e565b5b61116b8482850161102f565b60808301525060a082013567ffffffffffffffff81111561118f5761118e610f9e565b5b61119b8482850161102f565b60a08301525060c082013567ffffffffffffffff8111156111bf576111be610f9e565b5b6111cb8482850161102f565b60c08301525060e082013567ffffffffffffffff8111156111ef576111ee610f9e565b5b6111fb8482850161102f565b60e08301525092915050565b60006020828403121561121d5761121c610d6b565b5b600082013567ffffffffffffffff81111561123b5761123a610d70565b5b6112478482850161105d565b91505092915050565b6000806040838503121561126757611266610d6b565b5b600083013567ffffffffffffffff81111561128557611284610d70565b5b6112918582860161105d565b92505060206112a285828601610d96565b9150509250929050565b600081519050919050565b600082825260208201905092915050565b6000819050602082019050919050565b600082825260208201905092915050565b60006112f482610dd8565b6112fe81856112d8565b935061130e818560208601610df4565b61131781610e1e565b840191505092915050565b600061010083016000830151848203600086015261134082826112e9565b9150506020830151848203602086015261135a82826112e9565b9150506040830151848203604086015261137482826112e9565b9150506060830151848203606086015261138e82826112e9565b915050608083015184820360808601526113a882826112e9565b91505060a083015184820360a08601526113c282826112e9565b91505060c083015184820360c08601526113dc82826112e9565b91505060e083015184820360e08601526113f682826112e9565b9150508091505092915050565b600061140f8383611322565b905092915050565b6000602082019050919050565b600061142f826112ac565b61143981856112b7565b93508360208202850161144b856112c8565b8060005b8581101561148757848403895281516114688582611403565b945061147383611417565b925060208a0199505060018101905061144f565b50829750879550505050505092915050565b600060208201905081810360008301526114b38184611424565b905092915050565b7f4e487b7100000000000000000000000000000000000000000000000000000000600052602260045260246000fd5b6000600282049050600182168061150257607f821691505b602082108103611515576115146114bb565b5b50919050565b60008190508160005260206000209050919050565b60006020601f8301049050919050565b600082821b905092915050565b60006008830261157d7fffffffffffffffffffffffffffffffffffffffffffffffffffffffffffffffff82611540565b6115878683611540565b95508019841693508086168417925050509392505050565b6000819050919050565b60006115c46115bf6115ba84610d75565b61159f565b610d75565b9050919050565b6000819050919050565b6115de836115a9565b6115f26115ea826115cb565b84845461154d565b825550505050565b600090565b6116076115fa565b6116128184846115d5565b505050565b5b818110156116365761162b6000826115ff565b600181019050611618565b5050565b601f82111561167b5761164c8161151b565b61165584611530565b81016020851015611664578190505b61167861167085611530565b830182611617565b50505b505050565b600082821c905092915050565b600061169e60001984600802611680565b1980831691505092915050565b60006116b7838361168d565b9150826002028217905092915050565b6116d082610dd8565b67ffffffffffffffff8111156116e9576116e8610f23565b5b6116f382546114ea565b6116fe82828561163a565b600060209050601f831160018114611731576000841561171f578287015190505b61172985826116ab565b865550611791565b601f19841661173f8661151b565b60005b8281101561176757848901518255600182019150602085019450602081019050611742565b868310156117845784890151611780601f89168261168d565b8355505b6001600288020188555050505b505050505050565b60006101008301600083015184820360008601526117b782826112e9565b915050602083015184820360208601526117d182826112e9565b915050604083015184820360408601526117eb82826112e9565b9150506060830151848203606086015261180582826112e9565b9150506080830151848203608086015261181f82826112e9565b91505060a083015184820360a086015261183982826112e9565b91505060c083015184820360c086015261185382826112e9565b91505060e083015184820360e086015261186d82826112e9565b9150508091505092915050565b600060208201905081810360008301526118948184611799565b905092915050565b7f4e487b7100000000000000000000000000000000000000000000000000000000600052603260045260246000fd5b7f4e487b7100000000000000000000000000000000000000000000000000000000600052601160045260246000fd5b600061190582610d75565b915061191083610d75565b9250828201905080821115611928576119276118cb565b5b92915050565b600061193982610d75565b91507fffffffffffffffffffffffffffffffffffffffffffffffffffffffffffffffff820361196b5761196a6118cb565b5b60018201905091905056fea26469706673582212203313081f2d7cadcfe7c139e0973bd0d0edfa0e07e3d0d0e39e3573a93d47552b64736f6c63430008110033",
  "immutableReferences": {},
  "source": "// SPDX-License-Identifier: MIT\r\npragma solidity >=0.4.22 <0.9.0;\r\n\r\ncontract ProductFactory {\r\n\r\n    event SubmitProduct(Product product, uint indexed id);\r\n\r\n    struct Product {\r\n        string code;\r\n        string name;\r\n        string agency;\r\n        string price;\r\n        string dueDate;\r\n        string category;\r\n        string description;\r\n        string employee; \r\n    }\r\n\r\n    Product[] public products;\r\n\r\n    function createProduct(Product memory product) public {\r\n        products.push(product);\r\n        uint id = products.length; \r\n        emit SubmitProduct(product, id);\r\n    }\r\n\r\n    function getAllProduct() public view returns (Product[] memory) {\r\n        Product[] memory result = new Product[](products.length);\r\n        for (uint i = 0; i < products.length; i++) {\r\n            result[i] = products[i];\r\n        }\r\n        return result;\r\n    }\r\n\r\n    function updateProduct(Product memory product, uint index) public {\r\n        products[index] = product;\r\n        emit SubmitProduct(product, index+1);\r\n    }\r\n}\r\n",
  "sourcePath": "D:\\work_space\\blockchain\\Manage_materials_blockchain\\contracts\\ProductFactory.sol",
  "compiler": {
    "name": "solc",
    "version": "0.8.17+commit.8df45f5f.Emscripten.clang"
  },
  "schemaVersion": "3.4.10",
  "updatedAt": "2022-12-05T10:24:07.566Z",
  "networkType": "ethereum",
  "devdoc": {
    "kind": "dev",
    "methods": {},
    "version": 1
  },
  "userdoc": {
    "kind": "user",
    "methods": {},
    "version": 1
  }
}