{
  "contractName": "ProductFactory",
  "abi": [
    {
      "inputs": [
        {
          "internalType": "uint256",
          "name": "",
          "type": "uint256"
        }
      ],
      "name": "products",
      "outputs": [
        {
          "internalType": "string",
          "name": "code",
          "type": "string"
        },
        {
          "internalType": "string",
          "name": "name",
          "type": "string"
        },
        {
          "internalType": "string",
          "name": "agency",
          "type": "string"
        },
        {
          "internalType": "string",
          "name": "price",
          "type": "string"
        },
        {
          "internalType": "string",
          "name": "dueDate",
          "type": "string"
        },
        {
          "internalType": "string",
          "name": "category",
          "type": "string"
        },
        {
          "internalType": "string",
          "name": "description",
          "type": "string"
        },
        {
          "internalType": "string",
          "name": "employee",
          "type": "string"
        }
      ],
      "stateMutability": "view",
      "type": "function",
      "constant": true
    },
    {
      "inputs": [
        {
          "components": [
            {
              "internalType": "string",
              "name": "code",
              "type": "string"
            },
            {
              "internalType": "string",
              "name": "name",
              "type": "string"
            },
            {
              "internalType": "string",
              "name": "agency",
              "type": "string"
            },
            {
              "internalType": "string",
              "name": "price",
              "type": "string"
            },
            {
              "internalType": "string",
              "name": "dueDate",
              "type": "string"
            },
            {
              "internalType": "string",
              "name": "category",
              "type": "string"
            },
            {
              "internalType": "string",
              "name": "description",
              "type": "string"
            },
            {
              "internalType": "string",
              "name": "employee",
              "type": "string"
            }
          ],
          "internalType": "struct ProductFactory.Product",
          "name": "product",
          "type": "tuple"
        }
      ],
      "name": "createProduct",
      "outputs": [],
      "stateMutability": "nonpayable",
      "type": "function"
    },
    {
      "inputs": [],
      "name": "getAllProduct",
      "outputs": [
        {
          "components": [
            {
              "internalType": "string",
              "name": "code",
              "type": "string"
            },
            {
              "internalType": "string",
              "name": "name",
              "type": "string"
            },
            {
              "internalType": "string",
              "name": "agency",
              "type": "string"
            },
            {
              "internalType": "string",
              "name": "price",
              "type": "string"
            },
            {
              "internalType": "string",
              "name": "dueDate",
              "type": "string"
            },
            {
              "internalType": "string",
              "name": "category",
              "type": "string"
            },
            {
              "internalType": "string",
              "name": "description",
              "type": "string"
            },
            {
              "internalType": "string",
              "name": "employee",
              "type": "string"
            }
          ],
          "internalType": "struct ProductFactory.Product[]",
          "name": "",
          "type": "tuple[]"
        }
      ],
      "stateMutability": "view",
      "type": "function",
      "constant": true
    },
    {
      "inputs": [
        {
          "components": [
            {
              "internalType": "string",
              "name": "code",
              "type": "string"
            },
            {
              "internalType": "string",
              "name": "name",
              "type": "string"
            },
            {
              "internalType": "string",
              "name": "agency",
              "type": "string"
            },
            {
              "internalType": "string",
              "name": "price",
              "type": "string"
            },
            {
              "internalType": "string",
              "name": "dueDate",
              "type": "string"
            },
            {
              "internalType": "string",
              "name": "category",
              "type": "string"
            },
            {
              "internalType": "string",
              "name": "description",
              "type": "string"
            },
            {
              "internalType": "string",
              "name": "employee",
              "type": "string"
            }
          ],
          "internalType": "struct ProductFactory.Product",
          "name": "product",
          "type": "tuple"
        },
        {
          "internalType": "uint256",
          "name": "index",
          "type": "uint256"
        }
      ],
      "name": "updateProduct",
      "outputs": [],
      "stateMutability": "nonpayable",
      "type": "function"
    }
  ],
  "bytecode": "0x608060405234801561001057600080fd5b506117ef806100206000396000f3fe608060405234801561001057600080fd5b506004361061004c5760003560e01c80637acc0b2014610051578063808407f914610088578063bf10d838146100a4578063d055a75f146100c0575b600080fd5b61006b60048036038101906100669190610d25565b6100de565b60405161007f989796959493929190610de2565b60405180910390f35b6100a2600480360381019061009d9190611181565b610576565b005b6100be60048036038101906100b991906111ca565b610657565b005b6100c8610731565b6040516100d59190611413565b60405180910390f35b600081815481106100ee57600080fd5b906000526020600020906008020160009150905080600001805461011190611464565b80601f016020809104026020016040519081016040528092919081815260200182805461013d90611464565b801561018a5780601f1061015f5761010080835404028352916020019161018a565b820191906000526020600020905b81548152906001019060200180831161016d57829003601f168201915b50505050509080600101805461019f90611464565b80601f01602080910402602001604051908101604052809291908181526020018280546101cb90611464565b80156102185780601f106101ed57610100808354040283529160200191610218565b820191906000526020600020905b8154815290600101906020018083116101fb57829003601f168201915b50505050509080600201805461022d90611464565b80601f016020809104026020016040519081016040528092919081815260200182805461025990611464565b80156102a65780601f1061027b576101008083540402835291602001916102a6565b820191906000526020600020905b81548152906001019060200180831161028957829003601f168201915b5050505050908060030180546102bb90611464565b80601f01602080910402602001604051908101604052809291908181526020018280546102e790611464565b80156103345780601f1061030957610100808354040283529160200191610334565b820191906000526020600020905b81548152906001019060200180831161031757829003601f168201915b50505050509080600401805461034990611464565b80601f016020809104026020016040519081016040528092919081815260200182805461037590611464565b80156103c25780601f10610397576101008083540402835291602001916103c2565b820191906000526020600020905b8154815290600101906020018083116103a557829003601f168201915b5050505050908060050180546103d790611464565b80601f016020809104026020016040519081016040528092919081815260200182805461040390611464565b80156104505780601f1061042557610100808354040283529160200191610450565b820191906000526020600020905b81548152906001019060200180831161043357829003601f168201915b50505050509080600601805461046590611464565b80601f016020809104026020016040519081016040528092919081815260200182805461049190611464565b80156104de5780601f106104b3576101008083540402835291602001916104de565b820191906000526020600020905b8154815290600101906020018083116104c157829003601f168201915b5050505050908060070180546104f390611464565b80601f016020809104026020016040519081016040528092919081815260200182805461051f90611464565b801561056c5780601f106105415761010080835404028352916020019161056c565b820191906000526020600020905b81548152906001019060200180831161054f57829003601f168201915b5050505050905088565b600081908060018154018082558091505060019003906000526020600020906008020160009091909190915060008201518160000190816105b79190611641565b5060208201518160010190816105cd9190611641565b5060408201518160020190816105e39190611641565b5060608201518160030190816105f99190611641565b50608082015181600401908161060f9190611641565b5060a08201518160050190816106259190611641565b5060c082015181600601908161063b9190611641565b5060e08201518160070190816106519190611641565b50505050565b816000828154811061066c5761066b611713565b5b9060005260206000209060080201600082015181600001908161068f9190611641565b5060208201518160010190816106a59190611641565b5060408201518160020190816106bb9190611641565b5060608201518160030190816106d19190611641565b5060808201518160040190816106e79190611641565b5060a08201518160050190816106fd9190611641565b5060c08201518160060190816107139190611641565b5060e08201518160070190816107299190611641565b509050505050565b60606000808054905067ffffffffffffffff81111561075357610752610e9d565b5b60405190808252806020026020018201604052801561078c57816020015b610779610c96565b8152602001906001900390816107715790505b50905060005b600080549050811015610c8e57600081815481106107b3576107b2611713565b5b9060005260206000209060080201604051806101000160405290816000820180546107dd90611464565b80601f016020809104026020016040519081016040528092919081815260200182805461080990611464565b80156108565780601f1061082b57610100808354040283529160200191610856565b820191906000526020600020905b81548152906001019060200180831161083957829003601f168201915b5050505050815260200160018201805461086f90611464565b80601f016020809104026020016040519081016040528092919081815260200182805461089b90611464565b80156108e85780601f106108bd576101008083540402835291602001916108e8565b820191906000526020600020905b8154815290600101906020018083116108cb57829003601f168201915b5050505050815260200160028201805461090190611464565b80601f016020809104026020016040519081016040528092919081815260200182805461092d90611464565b801561097a5780601f1061094f5761010080835404028352916020019161097a565b820191906000526020600020905b81548152906001019060200180831161095d57829003601f168201915b5050505050815260200160038201805461099390611464565b80601f01602080910402602001604051908101604052809291908181526020018280546109bf90611464565b8015610a0c5780601f106109e157610100808354040283529160200191610a0c565b820191906000526020600020905b8154815290600101906020018083116109ef57829003601f168201915b50505050508152602001600482018054610a2590611464565b80601f0160208091040260200160405190810160405280929190818152602001828054610a5190611464565b8015610a9e5780601f10610a7357610100808354040283529160200191610a9e565b820191906000526020600020905b815481529060010190602001808311610a8157829003601f168201915b50505050508152602001600582018054610ab790611464565b80601f0160208091040260200160405190810160405280929190818152602001828054610ae390611464565b8015610b305780601f10610b0557610100808354040283529160200191610b30565b820191906000526020600020905b815481529060010190602001808311610b1357829003601f168201915b50505050508152602001600682018054610b4990611464565b80601f0160208091040260200160405190810160405280929190818152602001828054610b7590611464565b8015610bc25780601f10610b9757610100808354040283529160200191610bc2565b820191906000526020600020905b815481529060010190602001808311610ba557829003601f168201915b50505050508152602001600782018054610bdb90611464565b80601f0160208091040260200160405190810160405280929190818152602001828054610c0790611464565b8015610c545780601f10610c2957610100808354040283529160200191610c54565b820191906000526020600020905b815481529060010190602001808311610c3757829003601f168201915b505050505081525050828281518110610c7057610c6f611713565b5b60200260200101819052508080610c8690611771565b915050610792565b508091505090565b60405180610100016040528060608152602001606081526020016060815260200160608152602001606081526020016060815260200160608152602001606081525090565b6000604051905090565b600080fd5b600080fd5b6000819050919050565b610d0281610cef565b8114610d0d57600080fd5b50565b600081359050610d1f81610cf9565b92915050565b600060208284031215610d3b57610d3a610ce5565b5b6000610d4984828501610d10565b91505092915050565b600081519050919050565b600082825260208201905092915050565b60005b83811015610d8c578082015181840152602081019050610d71565b60008484015250505050565b6000601f19601f8301169050919050565b6000610db482610d52565b610dbe8185610d5d565b9350610dce818560208601610d6e565b610dd781610d98565b840191505092915050565b6000610100820190508181036000830152610dfd818b610da9565b90508181036020830152610e11818a610da9565b90508181036040830152610e258189610da9565b90508181036060830152610e398188610da9565b90508181036080830152610e4d8187610da9565b905081810360a0830152610e618186610da9565b905081810360c0830152610e758185610da9565b905081810360e0830152610e898184610da9565b90509998505050505050505050565b600080fd5b7f4e487b7100000000000000000000000000000000000000000000000000000000600052604160045260246000fd5b610ed582610d98565b810181811067ffffffffffffffff82111715610ef457610ef3610e9d565b5b80604052505050565b6000610f07610cdb565b9050610f138282610ecc565b919050565b600080fd5b600080fd5b600080fd5b600067ffffffffffffffff821115610f4257610f41610e9d565b5b610f4b82610d98565b9050602081019050919050565b82818337600083830152505050565b6000610f7a610f7584610f27565b610efd565b905082815260208101848484011115610f9657610f95610f22565b5b610fa1848285610f58565b509392505050565b600082601f830112610fbe57610fbd610f1d565b5b8135610fce848260208601610f67565b91505092915050565b60006101008284031215610fee57610fed610e98565b5b610ff9610100610efd565b9050600082013567ffffffffffffffff81111561101957611018610f18565b5b61102584828501610fa9565b600083015250602082013567ffffffffffffffff81111561104957611048610f18565b5b61105584828501610fa9565b602083015250604082013567ffffffffffffffff81111561107957611078610f18565b5b61108584828501610fa9565b604083015250606082013567ffffffffffffffff8111156110a9576110a8610f18565b5b6110b584828501610fa9565b606083015250608082013567ffffffffffffffff8111156110d9576110d8610f18565b5b6110e584828501610fa9565b60808301525060a082013567ffffffffffffffff81111561110957611108610f18565b5b61111584828501610fa9565b60a08301525060c082013567ffffffffffffffff81111561113957611138610f18565b5b61114584828501610fa9565b60c08301525060e082013567ffffffffffffffff81111561116957611168610f18565b5b61117584828501610fa9565b60e08301525092915050565b60006020828403121561119757611196610ce5565b5b600082013567ffffffffffffffff8111156111b5576111b4610cea565b5b6111c184828501610fd7565b91505092915050565b600080604083850312156111e1576111e0610ce5565b5b600083013567ffffffffffffffff8111156111ff576111fe610cea565b5b61120b85828601610fd7565b925050602061121c85828601610d10565b9150509250929050565b600081519050919050565b600082825260208201905092915050565b6000819050602082019050919050565b600082825260208201905092915050565b600061126e82610d52565b6112788185611252565b9350611288818560208601610d6e565b61129181610d98565b840191505092915050565b60006101008301600083015184820360008601526112ba8282611263565b915050602083015184820360208601526112d48282611263565b915050604083015184820360408601526112ee8282611263565b915050606083015184820360608601526113088282611263565b915050608083015184820360808601526113228282611263565b91505060a083015184820360a086015261133c8282611263565b91505060c083015184820360c08601526113568282611263565b91505060e083015184820360e08601526113708282611263565b9150508091505092915050565b6000611389838361129c565b905092915050565b6000602082019050919050565b60006113a982611226565b6113b38185611231565b9350836020820285016113c585611242565b8060005b8581101561140157848403895281516113e2858261137d565b94506113ed83611391565b925060208a019950506001810190506113c9565b50829750879550505050505092915050565b6000602082019050818103600083015261142d818461139e565b905092915050565b7f4e487b7100000000000000000000000000000000000000000000000000000000600052602260045260246000fd5b6000600282049050600182168061147c57607f821691505b60208210810361148f5761148e611435565b5b50919050565b60008190508160005260206000209050919050565b60006020601f8301049050919050565b600082821b905092915050565b6000600883026114f77fffffffffffffffffffffffffffffffffffffffffffffffffffffffffffffffff826114ba565b61150186836114ba565b95508019841693508086168417925050509392505050565b6000819050919050565b600061153e61153961153484610cef565b611519565b610cef565b9050919050565b6000819050919050565b61155883611523565b61156c61156482611545565b8484546114c7565b825550505050565b600090565b611581611574565b61158c81848461154f565b505050565b5b818110156115b0576115a5600082611579565b600181019050611592565b5050565b601f8211156115f5576115c681611495565b6115cf846114aa565b810160208510156115de578190505b6115f26115ea856114aa565b830182611591565b50505b505050565b600082821c905092915050565b6000611618600019846008026115fa565b1980831691505092915050565b60006116318383611607565b9150826002028217905092915050565b61164a82610d52565b67ffffffffffffffff81111561166357611662610e9d565b5b61166d8254611464565b6116788282856115b4565b600060209050601f8311600181146116ab5760008415611699578287015190505b6116a38582611625565b86555061170b565b601f1984166116b986611495565b60005b828110156116e1578489015182556001820191506020850194506020810190506116bc565b868310156116fe57848901516116fa601f891682611607565b8355505b6001600288020188555050505b505050505050565b7f4e487b7100000000000000000000000000000000000000000000000000000000600052603260045260246000fd5b7f4e487b7100000000000000000000000000000000000000000000000000000000600052601160045260246000fd5b600061177c82610cef565b91507fffffffffffffffffffffffffffffffffffffffffffffffffffffffffffffffff82036117ae576117ad611742565b5b60018201905091905056fea26469706673582212205fc8369f9beb7570b6a6cee38c50a187d913d09ed646f06762ba3fcd4a4f343264736f6c63430008110033",
  "immutableReferences": {},
  "source": "// SPDX-License-Identifier: MIT\r\npragma solidity >=0.4.22 <0.9.0;\r\n\r\ncontract ProductFactory {\r\n    struct Product {\r\n        string code;\r\n        string name;\r\n        string agency;\r\n        string price;\r\n        string dueDate;\r\n        string category;\r\n        string description;\r\n        string employee; \r\n    }\r\n\r\n    Product[] public products;\r\n\r\n    function createProduct(Product memory product) public {\r\n        products.push(product);\r\n    }\r\n\r\n    function getAllProduct() public view returns (Product[] memory) {\r\n        Product[] memory result = new Product[](products.length);\r\n        for (uint i = 0; i < products.length; i++) {\r\n            result[i] = products[i];\r\n        }\r\n        return result;\r\n    }\r\n\r\n    function updateProduct(Product memory product, uint index) public {\r\n        products[index] = product;\r\n    }\r\n}\r\n",
  "sourcePath": "D:\\work_space\\blockchain\\volt-react-dashboard\\contracts\\ProductFactory.sol",
  "compiler": {
    "name": "solc",
    "version": "0.8.17+commit.8df45f5f.Emscripten.clang"
  },
  "schemaVersion": "3.4.10",
  "updatedAt": "2022-11-30T17:31:34.033Z",
  "networkType": "ethereum",
  "devdoc": {
    "kind": "dev",
    "methods": {},
    "version": 1
  },
  "userdoc": {
    "kind": "user",
    "methods": {},
    "version": 1
  }
}